{
  "contractName": "StarNotary",
  "abi": [
    {
      "inputs": [],
      "stateMutability": "nonpayable",
      "type": "constructor"
    },
    {
      "anonymous": false,
      "inputs": [
        {
          "indexed": true,
          "internalType": "address",
          "name": "owner",
          "type": "address"
        },
        {
          "indexed": true,
          "internalType": "address",
          "name": "approved",
          "type": "address"
        },
        {
          "indexed": true,
          "internalType": "uint256",
          "name": "tokenId",
          "type": "uint256"
        }
      ],
      "name": "Approval",
      "type": "event"
    },
    {
      "anonymous": false,
      "inputs": [
        {
          "indexed": true,
          "internalType": "address",
          "name": "owner",
          "type": "address"
        },
        {
          "indexed": true,
          "internalType": "address",
          "name": "operator",
          "type": "address"
        },
        {
          "indexed": false,
          "internalType": "bool",
          "name": "approved",
          "type": "bool"
        }
      ],
      "name": "ApprovalForAll",
      "type": "event"
    },
    {
      "anonymous": false,
      "inputs": [
        {
          "indexed": true,
          "internalType": "address",
          "name": "from",
          "type": "address"
        },
        {
          "indexed": true,
          "internalType": "address",
          "name": "to",
          "type": "address"
        },
        {
          "indexed": true,
          "internalType": "uint256",
          "name": "tokenId",
          "type": "uint256"
        }
      ],
      "name": "Transfer",
      "type": "event"
    },
    {
      "inputs": [
        {
          "internalType": "address",
          "name": "to",
          "type": "address"
        },
        {
          "internalType": "uint256",
          "name": "tokenId",
          "type": "uint256"
        }
      ],
      "name": "approve",
      "outputs": [],
      "stateMutability": "nonpayable",
      "type": "function"
    },
    {
      "inputs": [
        {
          "internalType": "address",
          "name": "owner",
          "type": "address"
        }
      ],
      "name": "balanceOf",
      "outputs": [
        {
          "internalType": "uint256",
          "name": "",
          "type": "uint256"
        }
      ],
      "stateMutability": "view",
      "type": "function",
      "constant": true
    },
    {
      "inputs": [
        {
          "internalType": "uint256",
          "name": "tokenId",
          "type": "uint256"
        }
      ],
      "name": "getApproved",
      "outputs": [
        {
          "internalType": "address",
          "name": "",
          "type": "address"
        }
      ],
      "stateMutability": "view",
      "type": "function",
      "constant": true
    },
    {
      "inputs": [
        {
          "internalType": "address",
          "name": "owner",
          "type": "address"
        },
        {
          "internalType": "address",
          "name": "operator",
          "type": "address"
        }
      ],
      "name": "isApprovedForAll",
      "outputs": [
        {
          "internalType": "bool",
          "name": "",
          "type": "bool"
        }
      ],
      "stateMutability": "view",
      "type": "function",
      "constant": true
    },
    {
      "inputs": [],
      "name": "name",
      "outputs": [
        {
          "internalType": "string",
          "name": "",
          "type": "string"
        }
      ],
      "stateMutability": "view",
      "type": "function",
      "constant": true
    },
    {
      "inputs": [
        {
          "internalType": "uint256",
          "name": "tokenId",
          "type": "uint256"
        }
      ],
      "name": "ownerOf",
      "outputs": [
        {
          "internalType": "address",
          "name": "",
          "type": "address"
        }
      ],
      "stateMutability": "view",
      "type": "function",
      "constant": true
    },
    {
      "inputs": [
        {
          "internalType": "address",
          "name": "from",
          "type": "address"
        },
        {
          "internalType": "address",
          "name": "to",
          "type": "address"
        },
        {
          "internalType": "uint256",
          "name": "tokenId",
          "type": "uint256"
        }
      ],
      "name": "safeTransferFrom",
      "outputs": [],
      "stateMutability": "nonpayable",
      "type": "function"
    },
    {
      "inputs": [
        {
          "internalType": "address",
          "name": "from",
          "type": "address"
        },
        {
          "internalType": "address",
          "name": "to",
          "type": "address"
        },
        {
          "internalType": "uint256",
          "name": "tokenId",
          "type": "uint256"
        },
        {
          "internalType": "bytes",
          "name": "_data",
          "type": "bytes"
        }
      ],
      "name": "safeTransferFrom",
      "outputs": [],
      "stateMutability": "nonpayable",
      "type": "function"
    },
    {
      "inputs": [
        {
          "internalType": "address",
          "name": "operator",
          "type": "address"
        },
        {
          "internalType": "bool",
          "name": "approved",
          "type": "bool"
        }
      ],
      "name": "setApprovalForAll",
      "outputs": [],
      "stateMutability": "nonpayable",
      "type": "function"
    },
    {
      "inputs": [
        {
          "internalType": "uint256",
          "name": "",
          "type": "uint256"
        }
      ],
      "name": "starsForSale",
      "outputs": [
        {
          "internalType": "uint256",
          "name": "",
          "type": "uint256"
        }
      ],
      "stateMutability": "view",
      "type": "function",
      "constant": true
    },
    {
      "inputs": [
        {
          "internalType": "bytes4",
          "name": "interfaceId",
          "type": "bytes4"
        }
      ],
      "name": "supportsInterface",
      "outputs": [
        {
          "internalType": "bool",
          "name": "",
          "type": "bool"
        }
      ],
      "stateMutability": "view",
      "type": "function",
      "constant": true
    },
    {
      "inputs": [],
      "name": "symbol",
      "outputs": [
        {
          "internalType": "string",
          "name": "",
          "type": "string"
        }
      ],
      "stateMutability": "view",
      "type": "function",
      "constant": true
    },
    {
      "inputs": [
        {
          "internalType": "uint256",
          "name": "",
          "type": "uint256"
        }
      ],
      "name": "tokenIdToStarInfo",
      "outputs": [
        {
          "internalType": "string",
          "name": "name",
          "type": "string"
        },
        {
          "internalType": "bool",
          "name": "isStar",
          "type": "bool"
        }
      ],
      "stateMutability": "view",
      "type": "function",
      "constant": true
    },
    {
      "inputs": [
        {
          "internalType": "uint256",
          "name": "tokenId",
          "type": "uint256"
        }
      ],
      "name": "tokenURI",
      "outputs": [
        {
          "internalType": "string",
          "name": "",
          "type": "string"
        }
      ],
      "stateMutability": "view",
      "type": "function",
      "constant": true
    },
    {
      "inputs": [
        {
          "internalType": "address",
          "name": "from",
          "type": "address"
        },
        {
          "internalType": "address",
          "name": "to",
          "type": "address"
        },
        {
          "internalType": "uint256",
          "name": "tokenId",
          "type": "uint256"
        }
      ],
      "name": "transferFrom",
      "outputs": [],
      "stateMutability": "nonpayable",
      "type": "function"
    },
    {
      "inputs": [
        {
          "internalType": "uint256",
          "name": "_tokenId",
          "type": "uint256"
        }
      ],
      "name": "isStar",
      "outputs": [
        {
          "internalType": "bool",
          "name": "",
          "type": "bool"
        }
      ],
      "stateMutability": "view",
      "type": "function",
      "constant": true
    },
    {
      "inputs": [
        {
          "internalType": "string",
          "name": "_name",
          "type": "string"
        },
        {
          "internalType": "uint256",
          "name": "_tokenId",
          "type": "uint256"
        }
      ],
      "name": "createStar",
      "outputs": [],
      "stateMutability": "nonpayable",
      "type": "function"
    },
    {
      "inputs": [
        {
          "internalType": "uint256",
          "name": "_tokenId",
          "type": "uint256"
        },
        {
          "internalType": "uint256",
          "name": "_price",
          "type": "uint256"
        }
      ],
      "name": "putStarUpForSale",
      "outputs": [],
      "stateMutability": "nonpayable",
      "type": "function"
    },
    {
      "inputs": [
        {
          "internalType": "uint256",
          "name": "_tokenId",
          "type": "uint256"
        }
      ],
      "name": "buyStar",
      "outputs": [],
      "stateMutability": "payable",
      "type": "function",
      "payable": true
    },
    {
      "inputs": [
        {
          "internalType": "uint256",
          "name": "_tokenId",
          "type": "uint256"
        }
      ],
      "name": "lookUptokenIdToStarInfo",
      "outputs": [
        {
          "internalType": "string",
          "name": "",
          "type": "string"
        }
      ],
      "stateMutability": "view",
      "type": "function",
      "constant": true
    },
    {
      "inputs": [
        {
          "internalType": "uint256",
          "name": "_tokenId1",
          "type": "uint256"
        },
        {
          "internalType": "uint256",
          "name": "_tokenId2",
          "type": "uint256"
        }
      ],
      "name": "exchangeStars",
      "outputs": [],
      "stateMutability": "nonpayable",
      "type": "function"
    },
    {
      "inputs": [
        {
          "internalType": "address",
          "name": "_to",
          "type": "address"
        },
        {
          "internalType": "uint256",
          "name": "_tokenId",
          "type": "uint256"
        }
      ],
      "name": "transferStar",
      "outputs": [],
      "stateMutability": "nonpayable",
      "type": "function"
    }
  ],
  "bytecode": "0x60806040523480156200001157600080fd5b506040518060400160405280600a81526020017f537461724e6f74617279000000000000000000000000000000000000000000008152506040518060400160405280600381526020017f534e540000000000000000000000000000000000000000000000000000000000815250816000908051906020019062000096929190620000b8565b508060019080519060200190620000af929190620000b8565b505050620001cd565b828054620000c69062000168565b90600052602060002090601f016020900481019282620000ea576000855562000136565b82601f106200010557805160ff191683800117855562000136565b8280016001018555821562000136579182015b828111156200013557825182559160200191906001019062000118565b5b50905062000145919062000149565b5090565b5b80821115620001645760008160009055506001016200014a565b5090565b600060028204905060018216806200018157607f821691505b602082108114156200019857620001976200019e565b5b50919050565b7f4e487b7100000000000000000000000000000000000000000000000000000000600052602260045260246000fd5b61333d80620001dd6000396000f3fe6080604052600436106101355760003560e01c80636352211e116100ab578063a22cb4651161006f578063a22cb4651461044e578063b88d4fde14610477578063c87b56dd146104a0578063d7830ccb146104dd578063e7152a5c1461051a578063e985e9c51461054357610135565b80636352211e1461034357806370a08231146103805780638eedb004146103bd57806395d89b41146103fa5780639697c0a11461042557610135565b806315e0afa5116100fd57806315e0afa5146102455780631967fd981461026e57806323b872dd146102ac5780632f1c34ef146102d5578063316a4361146102f157806342842e0e1461031a57610135565b806301ffc9a71461013a5780630564b1301461017757806306fdde03146101b4578063081812fc146101df578063095ea7b31461021c575b600080fd5b34801561014657600080fd5b50610161600480360381019061015c91906121c0565b610580565b60405161016e91906126bf565b60405180910390f35b34801561018357600080fd5b5061019e60048036038101906101999190612266565b610662565b6040516101ab919061298c565b60405180910390f35b3480156101c057600080fd5b506101c961067a565b6040516101d691906126da565b60405180910390f35b3480156101eb57600080fd5b5061020660048036038101906102019190612266565b61070c565b6040516102139190612658565b60405180910390f35b34801561022857600080fd5b50610243600480360381019061023e9190612184565b610791565b005b34801561025157600080fd5b5061026c6004803603810190610267919061228f565b6108a9565b005b34801561027a57600080fd5b5061029560048036038101906102909190612266565b61094a565b6040516102a39291906126fc565b60405180910390f35b3480156102b857600080fd5b506102d360048036038101906102ce919061207e565b610a03565b005b6102ef60048036038101906102ea9190612266565b610a63565b005b3480156102fd57600080fd5b506103186004803603810190610313919061228f565b610bd2565b005b34801561032657600080fd5b50610341600480360381019061033c919061207e565b610c64565b005b34801561034f57600080fd5b5061036a60048036038101906103659190612266565b610c84565b6040516103779190612658565b60405180910390f35b34801561038c57600080fd5b506103a760048036038101906103a29190612019565b610d36565b6040516103b4919061298c565b60405180910390f35b3480156103c957600080fd5b506103e460048036038101906103df9190612266565b610dee565b6040516103f191906126bf565b60405180910390f35b34801561040657600080fd5b5061040f610e1b565b60405161041c91906126da565b60405180910390f35b34801561043157600080fd5b5061044c60048036038101906104479190612212565b610ead565b005b34801561045a57600080fd5b5061047560048036038101906104709190612148565b610f75565b005b34801561048357600080fd5b5061049e600480360381019061049991906120cd565b6110f6565b005b3480156104ac57600080fd5b506104c760048036038101906104c29190612266565b611158565b6040516104d491906126da565b60405180910390f35b3480156104e957600080fd5b5061050460048036038101906104ff9190612266565b6111ff565b60405161051191906126da565b60405180910390f35b34801561052657600080fd5b50610541600480360381019061053c9190612184565b6112ef565b005b34801561054f57600080fd5b5061056a60048036038101906105659190612042565b61133b565b60405161057791906126bf565b60405180910390f35b60007f80ac58cd000000000000000000000000000000000000000000000000000000007bffffffffffffffffffffffffffffffffffffffffffffffffffffffff1916827bffffffffffffffffffffffffffffffffffffffffffffffffffffffff1916148061064b57507f5b5e139f000000000000000000000000000000000000000000000000000000007bffffffffffffffffffffffffffffffffffffffffffffffffffffffff1916827bffffffffffffffffffffffffffffffffffffffffffffffffffffffff1916145b8061065b575061065a826113cf565b5b9050919050565b60076020528060005260406000206000915090505481565b60606000805461068990612be2565b80601f01602080910402602001604051908101604052809291908181526020018280546106b590612be2565b80156107025780601f106106d757610100808354040283529160200191610702565b820191906000526020600020905b8154815290600101906020018083116106e557829003601f168201915b5050505050905090565b600061071782611439565b610756576040517f08c379a000000000000000000000000000000000000000000000000000000000815260040161074d9061288c565b60405180910390fd5b6004600083815260200190815260200160002060009054906101000a900473ffffffffffffffffffffffffffffffffffffffff169050919050565b600061079c82610c84565b90508073ffffffffffffffffffffffffffffffffffffffff168373ffffffffffffffffffffffffffffffffffffffff16141561080d576040517f08c379a00000000000000000000000000000000000000000000000000000000081526004016108049061290c565b60405180910390fd5b8073ffffffffffffffffffffffffffffffffffffffff1661082c6114a5565b73ffffffffffffffffffffffffffffffffffffffff16148061085b575061085a816108556114a5565b61133b565b5b61089a576040517f08c379a00000000000000000000000000000000000000000000000000000000081526004016108919061280c565b60405180910390fd5b6108a483836114ad565b505050565b60006108b483610c84565b905060006108c183610c84565b90508173ffffffffffffffffffffffffffffffffffffffff163373ffffffffffffffffffffffffffffffffffffffff16148061092857508073ffffffffffffffffffffffffffffffffffffffff163373ffffffffffffffffffffffffffffffffffffffff16145b1561094457610938828286611566565b610943818385611566565b5b50505050565b600660205280600052604060002060009150905080600001805461096d90612be2565b80601f016020809104026020016040519081016040528092919081815260200182805461099990612be2565b80156109e65780601f106109bb576101008083540402835291602001916109e6565b820191906000526020600020905b8154815290600101906020018083116109c957829003601f168201915b5050505050908060010160009054906101000a900460ff16905082565b610a14610a0e6114a5565b826117c2565b610a53576040517f08c379a0000000000000000000000000000000000000000000000000000000008152600401610a4a9061296c565b60405180910390fd5b610a5e838383611566565b505050565b6000600760008381526020019081526020016000205411610ab9576040517f08c379a0000000000000000000000000000000000000000000000000000000008152600401610ab09061294c565b60405180910390fd5b6000600760008381526020019081526020016000205490506000610adc83610c84565b9050813411610b20576040517f08c379a0000000000000000000000000000000000000000000000000000000008152600401610b17906128ec565b60405180910390fd5b8073ffffffffffffffffffffffffffffffffffffffff166108fc839081150290604051600060405180830381858888f19350505050158015610b66573d6000803e3d6000fd5b50610b72813385611566565b81341115610bcd573373ffffffffffffffffffffffffffffffffffffffff166108fc8334610ba09190612af8565b9081150290604051600060405180830381858888f19350505050158015610bcb573d6000803e3d6000fd5b505b505050565b3373ffffffffffffffffffffffffffffffffffffffff16610bf283610c84565b73ffffffffffffffffffffffffffffffffffffffff1614610c48576040517f08c379a0000000000000000000000000000000000000000000000000000000008152600401610c3f9061272c565b60405180910390fd5b8060076000848152602001908152602001600020819055505050565b610c7f838383604051806020016040528060008152506110f6565b505050565b6000806002600084815260200190815260200160002060009054906101000a900473ffffffffffffffffffffffffffffffffffffffff169050600073ffffffffffffffffffffffffffffffffffffffff168173ffffffffffffffffffffffffffffffffffffffff161415610d2d576040517f08c379a0000000000000000000000000000000000000000000000000000000008152600401610d249061284c565b60405180910390fd5b80915050919050565b60008073ffffffffffffffffffffffffffffffffffffffff168273ffffffffffffffffffffffffffffffffffffffff161415610da7576040517f08c379a0000000000000000000000000000000000000000000000000000000008152600401610d9e9061282c565b60405180910390fd5b600360008373ffffffffffffffffffffffffffffffffffffffff1673ffffffffffffffffffffffffffffffffffffffff168152602001908152602001600020549050919050565b60006006600083815260200190815260200160002060010160009054906101000a900460ff169050919050565b606060018054610e2a90612be2565b80601f0160208091040260200160405190810160405280929190818152602001828054610e5690612be2565b8015610ea35780601f10610e7857610100808354040283529160200191610ea3565b820191906000526020600020905b815481529060010190602001808311610e8657829003601f168201915b5050505050905090565b610eb681610dee565b15610ef6576040517f08c379a0000000000000000000000000000000000000000000000000000000008152600401610eed9061274c565b60405180910390fd5b6000604051806040016040528084815260200160011515815250905080600660008481526020019081526020016000206000820151816000019080519060200190610f42929190611e3d565b5060208201518160010160006101000a81548160ff021916908315150217905550905050610f7033836118a0565b505050565b610f7d6114a5565b73ffffffffffffffffffffffffffffffffffffffff168273ffffffffffffffffffffffffffffffffffffffff161415610feb576040517f08c379a0000000000000000000000000000000000000000000000000000000008152600401610fe2906127cc565b60405180910390fd5b8060056000610ff86114a5565b73ffffffffffffffffffffffffffffffffffffffff1673ffffffffffffffffffffffffffffffffffffffff16815260200190815260200160002060008473ffffffffffffffffffffffffffffffffffffffff1673ffffffffffffffffffffffffffffffffffffffff16815260200190815260200160002060006101000a81548160ff0219169083151502179055508173ffffffffffffffffffffffffffffffffffffffff166110a56114a5565b73ffffffffffffffffffffffffffffffffffffffff167f17307eab39ab6107e8899845ad3d59bd9653f200f220920489ca2b5937696c31836040516110ea91906126bf565b60405180910390a35050565b6111076111016114a5565b836117c2565b611146576040517f08c379a000000000000000000000000000000000000000000000000000000000815260040161113d9061296c565b60405180910390fd5b61115284848484611a6e565b50505050565b606061116382611439565b6111a2576040517f08c379a0000000000000000000000000000000000000000000000000000000008152600401611199906128cc565b60405180910390fd5b60006111ac611aca565b905060008151116111cc57604051806020016040528060008152506111f7565b806111d684611ae1565b6040516020016111e7929190612634565b6040516020818303038152906040525b915050919050565b606061120a82610dee565b611249576040517f08c379a00000000000000000000000000000000000000000000000000000000081526004016112409061292c565b60405180910390fd5b60066000838152602001908152602001600020600001805461126a90612be2565b80601f016020809104026020016040519081016040528092919081815260200182805461129690612be2565b80156112e35780601f106112b8576101008083540402835291602001916112e3565b820191906000526020600020905b8154815290600101906020018083116112c657829003601f168201915b50505050509050919050565b3373ffffffffffffffffffffffffffffffffffffffff1661130f82610c84565b73ffffffffffffffffffffffffffffffffffffffff16141561133757611336338383610a03565b5b5050565b6000600560008473ffffffffffffffffffffffffffffffffffffffff1673ffffffffffffffffffffffffffffffffffffffff16815260200190815260200160002060008373ffffffffffffffffffffffffffffffffffffffff1673ffffffffffffffffffffffffffffffffffffffff16815260200190815260200160002060009054906101000a900460ff16905092915050565b60007f01ffc9a7000000000000000000000000000000000000000000000000000000007bffffffffffffffffffffffffffffffffffffffffffffffffffffffff1916827bffffffffffffffffffffffffffffffffffffffffffffffffffffffff1916149050919050565b60008073ffffffffffffffffffffffffffffffffffffffff166002600084815260200190815260200160002060009054906101000a900473ffffffffffffffffffffffffffffffffffffffff1673ffffffffffffffffffffffffffffffffffffffff1614159050919050565b600033905090565b816004600083815260200190815260200160002060006101000a81548173ffffffffffffffffffffffffffffffffffffffff021916908373ffffffffffffffffffffffffffffffffffffffff160217905550808273ffffffffffffffffffffffffffffffffffffffff1661152083610c84565b73ffffffffffffffffffffffffffffffffffffffff167f8c5be1e5ebec7d5bd14f71427d1e84f3dd0314c0f7b2291e5b200ac8c7c3b92560405160405180910390a45050565b8273ffffffffffffffffffffffffffffffffffffffff1661158682610c84565b73ffffffffffffffffffffffffffffffffffffffff16146115dc576040517f08c379a00000000000000000000000000000000000000000000000000000000081526004016115d3906128ac565b60405180910390fd5b600073ffffffffffffffffffffffffffffffffffffffff168273ffffffffffffffffffffffffffffffffffffffff16141561164c576040517f08c379a0000000000000000000000000000000000000000000000000000000008152600401611643906127ac565b60405180910390fd5b611657838383611c8e565b6116626000826114ad565b6001600360008573ffffffffffffffffffffffffffffffffffffffff1673ffffffffffffffffffffffffffffffffffffffff16815260200190815260200160002060008282546116b29190612af8565b925050819055506001600360008473ffffffffffffffffffffffffffffffffffffffff1673ffffffffffffffffffffffffffffffffffffffff16815260200190815260200160002060008282546117099190612a71565b92505081905550816002600083815260200190815260200160002060006101000a81548173ffffffffffffffffffffffffffffffffffffffff021916908373ffffffffffffffffffffffffffffffffffffffff160217905550808273ffffffffffffffffffffffffffffffffffffffff168473ffffffffffffffffffffffffffffffffffffffff167fddf252ad1be2c89b69c2b068fc378daa952ba7f163c4a11628f55a4df523b3ef60405160405180910390a4505050565b60006117cd82611439565b61180c576040517f08c379a0000000000000000000000000000000000000000000000000000000008152600401611803906127ec565b60405180910390fd5b600061181783610c84565b90508073ffffffffffffffffffffffffffffffffffffffff168473ffffffffffffffffffffffffffffffffffffffff16148061188657508373ffffffffffffffffffffffffffffffffffffffff1661186e8461070c565b73ffffffffffffffffffffffffffffffffffffffff16145b806118975750611896818561133b565b5b91505092915050565b600073ffffffffffffffffffffffffffffffffffffffff168273ffffffffffffffffffffffffffffffffffffffff161415611910576040517f08c379a00000000000000000000000000000000000000000000000000000000081526004016119079061286c565b60405180910390fd5b61191981611439565b15611959576040517f08c379a00000000000000000000000000000000000000000000000000000000081526004016119509061278c565b60405180910390fd5b61196560008383611c8e565b6001600360008473ffffffffffffffffffffffffffffffffffffffff1673ffffffffffffffffffffffffffffffffffffffff16815260200190815260200160002060008282546119b59190612a71565b92505081905550816002600083815260200190815260200160002060006101000a81548173ffffffffffffffffffffffffffffffffffffffff021916908373ffffffffffffffffffffffffffffffffffffffff160217905550808273ffffffffffffffffffffffffffffffffffffffff16600073ffffffffffffffffffffffffffffffffffffffff167fddf252ad1be2c89b69c2b068fc378daa952ba7f163c4a11628f55a4df523b3ef60405160405180910390a45050565b611a79848484611566565b611a8584848484611c93565b611ac4576040517f08c379a0000000000000000000000000000000000000000000000000000000008152600401611abb9061276c565b60405180910390fd5b50505050565b606060405180602001604052806000815250905090565b60606000821415611b29576040518060400160405280600181526020017f30000000000000000000000000000000000000000000000000000000000000008152509050611c89565b600082905060005b60008214611b5b578080611b4490612c45565b915050600a82611b549190612ac7565b9150611b31565b60008167ffffffffffffffff811115611b9d577f4e487b7100000000000000000000000000000000000000000000000000000000600052604160045260246000fd5b6040519080825280601f01601f191660200182016040528015611bcf5781602001600182028036833780820191505090505b5090505b60008514611c8257600182611be89190612af8565b9150600a85611bf79190612c8e565b6030611c039190612a71565b60f81b818381518110611c3f577f4e487b7100000000000000000000000000000000000000000000000000000000600052603260045260246000fd5b60200101907effffffffffffffffffffffffffffffffffffffffffffffffffffffffffffff1916908160001a905350600a85611c7b9190612ac7565b9450611bd3565b8093505050505b919050565b505050565b6000611cb48473ffffffffffffffffffffffffffffffffffffffff16611e2a565b15611e1d578373ffffffffffffffffffffffffffffffffffffffff1663150b7a02611cdd6114a5565b8786866040518563ffffffff1660e01b8152600401611cff9493929190612673565b602060405180830381600087803b158015611d1957600080fd5b505af1925050508015611d4a57506040513d601f19601f82011682018060405250810190611d4791906121e9565b60015b611dcd573d8060008114611d7a576040519150601f19603f3d011682016040523d82523d6000602084013e611d7f565b606091505b50600081511415611dc5576040517f08c379a0000000000000000000000000000000000000000000000000000000008152600401611dbc9061276c565b60405180910390fd5b805181602001fd5b63150b7a0260e01b7bffffffffffffffffffffffffffffffffffffffffffffffffffffffff1916817bffffffffffffffffffffffffffffffffffffffffffffffffffffffff191614915050611e22565b600190505b949350505050565b600080823b905060008111915050919050565b828054611e4990612be2565b90600052602060002090601f016020900481019282611e6b5760008555611eb2565b82601f10611e8457805160ff1916838001178555611eb2565b82800160010185558215611eb2579182015b82811115611eb1578251825591602001919060010190611e96565b5b509050611ebf9190611ec3565b5090565b5b80821115611edc576000816000905550600101611ec4565b5090565b6000611ef3611eee846129cc565b6129a7565b905082815260208101848484011115611f0b57600080fd5b611f16848285612ba0565b509392505050565b6000611f31611f2c846129fd565b6129a7565b905082815260208101848484011115611f4957600080fd5b611f54848285612ba0565b509392505050565b600081359050611f6b816132ab565b92915050565b600081359050611f80816132c2565b92915050565b600081359050611f95816132d9565b92915050565b600081519050611faa816132d9565b92915050565b600082601f830112611fc157600080fd5b8135611fd1848260208601611ee0565b91505092915050565b600082601f830112611feb57600080fd5b8135611ffb848260208601611f1e565b91505092915050565b600081359050612013816132f0565b92915050565b60006020828403121561202b57600080fd5b600061203984828501611f5c565b91505092915050565b6000806040838503121561205557600080fd5b600061206385828601611f5c565b925050602061207485828601611f5c565b9150509250929050565b60008060006060848603121561209357600080fd5b60006120a186828701611f5c565b93505060206120b286828701611f5c565b92505060406120c386828701612004565b9150509250925092565b600080600080608085870312156120e357600080fd5b60006120f187828801611f5c565b945050602061210287828801611f5c565b935050604061211387828801612004565b925050606085013567ffffffffffffffff81111561213057600080fd5b61213c87828801611fb0565b91505092959194509250565b6000806040838503121561215b57600080fd5b600061216985828601611f5c565b925050602061217a85828601611f71565b9150509250929050565b6000806040838503121561219757600080fd5b60006121a585828601611f5c565b92505060206121b685828601612004565b9150509250929050565b6000602082840312156121d257600080fd5b60006121e084828501611f86565b91505092915050565b6000602082840312156121fb57600080fd5b600061220984828501611f9b565b91505092915050565b6000806040838503121561222557600080fd5b600083013567ffffffffffffffff81111561223f57600080fd5b61224b85828601611fda565b925050602061225c85828601612004565b9150509250929050565b60006020828403121561227857600080fd5b600061228684828501612004565b91505092915050565b600080604083850312156122a257600080fd5b60006122b085828601612004565b92505060206122c185828601612004565b9150509250929050565b6122d481612b2c565b82525050565b6122e381612b3e565b82525050565b60006122f482612a2e565b6122fe8185612a44565b935061230e818560208601612baf565b61231781612d7b565b840191505092915050565b600061232d82612a39565b6123378185612a55565b9350612347818560208601612baf565b61235081612d7b565b840191505092915050565b600061236682612a39565b6123708185612a66565b9350612380818560208601612baf565b80840191505092915050565b6000612399602783612a55565b91506123a482612d8c565b604082019050919050565b60006123bc602583612a55565b91506123c782612ddb565b604082019050919050565b60006123df603283612a55565b91506123ea82612e2a565b604082019050919050565b6000612402601c83612a55565b915061240d82612e79565b602082019050919050565b6000612425602483612a55565b915061243082612ea2565b604082019050919050565b6000612448601983612a55565b915061245382612ef1565b602082019050919050565b600061246b602c83612a55565b915061247682612f1a565b604082019050919050565b600061248e603883612a55565b915061249982612f69565b604082019050919050565b60006124b1602a83612a55565b91506124bc82612fb8565b604082019050919050565b60006124d4602983612a55565b91506124df82613007565b604082019050919050565b60006124f7602083612a55565b915061250282613056565b602082019050919050565b600061251a602c83612a55565b91506125258261307f565b604082019050919050565b600061253d602983612a55565b9150612548826130ce565b604082019050919050565b6000612560602f83612a55565b915061256b8261311d565b604082019050919050565b6000612583601d83612a55565b915061258e8261316c565b602082019050919050565b60006125a6602183612a55565b91506125b182613195565b604082019050919050565b60006125c9602783612a55565b91506125d4826131e4565b604082019050919050565b60006125ec601e83612a55565b91506125f782613233565b602082019050919050565b600061260f603183612a55565b915061261a8261325c565b604082019050919050565b61262e81612b96565b82525050565b6000612640828561235b565b915061264c828461235b565b91508190509392505050565b600060208201905061266d60008301846122cb565b92915050565b600060808201905061268860008301876122cb565b61269560208301866122cb565b6126a26040830185612625565b81810360608301526126b481846122e9565b905095945050505050565b60006020820190506126d460008301846122da565b92915050565b600060208201905081810360008301526126f48184612322565b905092915050565b600060408201905081810360008301526127168185612322565b905061272560208301846122da565b9392505050565b600060208201905081810360008301526127458161238c565b9050919050565b60006020820190508181036000830152612765816123af565b9050919050565b60006020820190508181036000830152612785816123d2565b9050919050565b600060208201905081810360008301526127a5816123f5565b9050919050565b600060208201905081810360008301526127c581612418565b9050919050565b600060208201905081810360008301526127e58161243b565b9050919050565b600060208201905081810360008301526128058161245e565b9050919050565b6000602082019050818103600083015261282581612481565b9050919050565b60006020820190508181036000830152612845816124a4565b9050919050565b60006020820190508181036000830152612865816124c7565b9050919050565b60006020820190508181036000830152612885816124ea565b9050919050565b600060208201905081810360008301526128a58161250d565b9050919050565b600060208201905081810360008301526128c581612530565b9050919050565b600060208201905081810360008301526128e581612553565b9050919050565b6000602082019050818103600083015261290581612576565b9050919050565b6000602082019050818103600083015261292581612599565b9050919050565b60006020820190508181036000830152612945816125bc565b9050919050565b60006020820190508181036000830152612965816125df565b9050919050565b6000602082019050818103600083015261298581612602565b9050919050565b60006020820190506129a16000830184612625565b92915050565b60006129b16129c2565b90506129bd8282612c14565b919050565b6000604051905090565b600067ffffffffffffffff8211156129e7576129e6612d4c565b5b6129f082612d7b565b9050602081019050919050565b600067ffffffffffffffff821115612a1857612a17612d4c565b5b612a2182612d7b565b9050602081019050919050565b600081519050919050565b600081519050919050565b600082825260208201905092915050565b600082825260208201905092915050565b600081905092915050565b6000612a7c82612b96565b9150612a8783612b96565b9250827fffffffffffffffffffffffffffffffffffffffffffffffffffffffffffffffff03821115612abc57612abb612cbf565b5b828201905092915050565b6000612ad282612b96565b9150612add83612b96565b925082612aed57612aec612cee565b5b828204905092915050565b6000612b0382612b96565b9150612b0e83612b96565b925082821015612b2157612b20612cbf565b5b828203905092915050565b6000612b3782612b76565b9050919050565b60008115159050919050565b60007fffffffff0000000000000000000000000000000000000000000000000000000082169050919050565b600073ffffffffffffffffffffffffffffffffffffffff82169050919050565b6000819050919050565b82818337600083830152505050565b60005b83811015612bcd578082015181840152602081019050612bb2565b83811115612bdc576000848401525b50505050565b60006002820490506001821680612bfa57607f821691505b60208210811415612c0e57612c0d612d1d565b5b50919050565b612c1d82612d7b565b810181811067ffffffffffffffff82111715612c3c57612c3b612d4c565b5b80604052505050565b6000612c5082612b96565b91507fffffffffffffffffffffffffffffffffffffffffffffffffffffffffffffffff821415612c8357612c82612cbf565b5b600182019050919050565b6000612c9982612b96565b9150612ca483612b96565b925082612cb457612cb3612cee565b5b828206905092915050565b7f4e487b7100000000000000000000000000000000000000000000000000000000600052601160045260246000fd5b7f4e487b7100000000000000000000000000000000000000000000000000000000600052601260045260246000fd5b7f4e487b7100000000000000000000000000000000000000000000000000000000600052602260045260246000fd5b7f4e487b7100000000000000000000000000000000000000000000000000000000600052604160045260246000fd5b6000601f19601f8301169050919050565b7f596f752063616e27742073616c6520746865205374617220796f7520646f6e2760008201527f74206f776e656400000000000000000000000000000000000000000000000000602082015250565b7f53746172207769746820676976656e20746f6b656e20616c726561647920636c60008201527f61696d6564000000000000000000000000000000000000000000000000000000602082015250565b7f4552433732313a207472616e7366657220746f206e6f6e20455243373231526560008201527f63656976657220696d706c656d656e7465720000000000000000000000000000602082015250565b7f4552433732313a20746f6b656e20616c7265616479206d696e74656400000000600082015250565b7f4552433732313a207472616e7366657220746f20746865207a65726f2061646460008201527f7265737300000000000000000000000000000000000000000000000000000000602082015250565b7f4552433732313a20617070726f766520746f2063616c6c657200000000000000600082015250565b7f4552433732313a206f70657261746f7220717565727920666f72206e6f6e657860008201527f697374656e7420746f6b656e0000000000000000000000000000000000000000602082015250565b7f4552433732313a20617070726f76652063616c6c6572206973206e6f74206f7760008201527f6e6572206e6f7220617070726f76656420666f7220616c6c0000000000000000602082015250565b7f4552433732313a2062616c616e636520717565727920666f7220746865207a6560008201527f726f206164647265737300000000000000000000000000000000000000000000602082015250565b7f4552433732313a206f776e657220717565727920666f72206e6f6e657869737460008201527f656e7420746f6b656e0000000000000000000000000000000000000000000000602082015250565b7f4552433732313a206d696e7420746f20746865207a65726f2061646472657373600082015250565b7f4552433732313a20617070726f76656420717565727920666f72206e6f6e657860008201527f697374656e7420746f6b656e0000000000000000000000000000000000000000602082015250565b7f4552433732313a207472616e73666572206f6620746f6b656e2074686174206960008201527f73206e6f74206f776e0000000000000000000000000000000000000000000000602082015250565b7f4552433732314d657461646174613a2055524920717565727920666f72206e6f60008201527f6e6578697374656e7420746f6b656e0000000000000000000000000000000000602082015250565b7f596f75206e65656420746f206861766520656e6f756768204574686572000000600082015250565b7f4552433732313a20617070726f76616c20746f2063757272656e74206f776e6560008201527f7200000000000000000000000000000000000000000000000000000000000000602082015250565b7f4e6f205374617220466f756e6420666f72207468697320746f6b656e20275f7460008201527f6f6b656e49642700000000000000000000000000000000000000000000000000602082015250565b7f54686520537461722073686f756c6420626520757020666f722073616c650000600082015250565b7f4552433732313a207472616e736665722063616c6c6572206973206e6f74206f60008201527f776e6572206e6f7220617070726f766564000000000000000000000000000000602082015250565b6132b481612b2c565b81146132bf57600080fd5b50565b6132cb81612b3e565b81146132d657600080fd5b50565b6132e281612b4a565b81146132ed57600080fd5b50565b6132f981612b96565b811461330457600080fd5b5056fea2646970667358221220cbffc3b3e8860779069feec1da03ed3017a0a9edf49177343803885552b2f05e64736f6c63430008040033",
  "immutableReferences": {},
  "source": "// SPDX-License-Identifier: MIT\n\npragma solidity ^0.8.0;\n\nimport \"@openzeppelin/contracts/token/ERC721/ERC721.sol\";\n\ncontract StarNotary is ERC721 {\n  struct Star {\n    string name;\n    bool isStar;\n  }\n\n  constructor() ERC721(\"StarNotary\", \"SNT\") {}\n \n  mapping(uint256 => Star) public tokenIdToStarInfo;\n  mapping(uint256 => uint256) public starsForSale;\n\n\n  function isStar(uint256 _tokenId) public view returns (bool) {\n    return tokenIdToStarInfo[_tokenId].isStar;\n  }\n\n  // Create Star using the Struct\n  function createStar(string memory _name, uint256 _tokenId) public {\n    require(!isStar(_tokenId), 'Star with given token already claimed');\n    Star memory newStar = Star(_name, true);\n    tokenIdToStarInfo[_tokenId] = newStar;\n    _mint(msg.sender, _tokenId);\n  }\n\n  // Putting an Star for sale (Adding the star tokenid into the mapping starsForSale, first verify that the sender is the owner)\n  function putStarUpForSale(uint256 _tokenId, uint256 _price) public {\n    require(ownerOf(_tokenId) == msg.sender, \"You can't sale the Star you don't owned\");\n    starsForSale[_tokenId] = _price;\n  }\n\n  function buyStar(uint256 _tokenId) public  payable {\n    require(starsForSale[_tokenId] > 0, \"The Star should be up for sale\");\n    uint256 starCost = starsForSale[_tokenId];\n    address ownerAddress = ownerOf(_tokenId);\n    require(msg.value > starCost, \"You need to have enough Ether\");\n    payable(ownerAddress).transfer(starCost);\n    _transfer(ownerAddress, msg.sender, _tokenId);\n    if(msg.value > starCost) {\n        payable(msg.sender).transfer(msg.value - starCost);\n    }\n  }\n  \n  function lookUptokenIdToStarInfo(uint256 _tokenId) public view returns (string memory){\n    require(isStar(_tokenId), \"No Star Found for this token '_tokenId'\");\n    return tokenIdToStarInfo[_tokenId].name;\n  }\n\n  function exchangeStars(uint256 _tokenId1, uint256 _tokenId2) public {\n      //1. Passing to star tokenId you will need to check if the owner of _tokenId1 or _tokenId2 is the sender\n      //2. You don't have to check for the price of the token (star)\n      //3. Get the owner of the two tokens (ownerOf(_tokenId1), ownerOf(_tokenId1)\n      //4. Use _transferFrom function to exchange the tokens.\n      address owner1 = ownerOf(_tokenId1);\n      address owner2 = ownerOf(_tokenId2);\n\n      if (msg.sender == owner1 || msg.sender == owner2) {\n        _transfer(owner1, owner2, _tokenId1);\n        _transfer(owner2, owner1, _tokenId2);\n      }\n  }\n    // Implement Task 1 Transfer Stars\n  function transferStar(address _to, uint256 _tokenId) public {\n      //1. Check if the sender is the ownerOf(_tokenId)\n      //2. Use the transferFrom(from, to, tokenId); function to transfer the Star\n      if (ownerOf(_tokenId) == msg.sender) {\n        transferFrom(msg.sender, _to, _tokenId);\n      }\n  }\n}",
  "sourcePath": "/home/tymus/Projects/CryptoStar/contracts/StarNotary.sol",
  "compiler": {
    "name": "solc",
    "version": "0.8.4+commit.c7e474f2.Emscripten.clang"
  },
  "schemaVersion": "3.3.4",
  "updatedAt": "2021-04-27T15:58:35.080Z",
  "networkType": "ethereum",
  "devdoc": {
    "kind": "dev",
    "methods": {
      "approve(address,uint256)": {
        "details": "See {IERC721-approve}."
      },
      "balanceOf(address)": {
        "details": "See {IERC721-balanceOf}."
      },
      "getApproved(uint256)": {
        "details": "See {IERC721-getApproved}."
      },
      "isApprovedForAll(address,address)": {
        "details": "See {IERC721-isApprovedForAll}."
      },
      "name()": {
        "details": "See {IERC721Metadata-name}."
      },
      "ownerOf(uint256)": {
        "details": "See {IERC721-ownerOf}."
      },
      "safeTransferFrom(address,address,uint256)": {
        "details": "See {IERC721-safeTransferFrom}."
      },
      "safeTransferFrom(address,address,uint256,bytes)": {
        "details": "See {IERC721-safeTransferFrom}."
      },
      "setApprovalForAll(address,bool)": {
        "details": "See {IERC721-setApprovalForAll}."
      },
      "supportsInterface(bytes4)": {
        "details": "See {IERC165-supportsInterface}."
      },
      "symbol()": {
        "details": "See {IERC721Metadata-symbol}."
      },
      "tokenURI(uint256)": {
        "details": "See {IERC721Metadata-tokenURI}."
      },
      "transferFrom(address,address,uint256)": {
        "details": "See {IERC721-transferFrom}."
      }
    },
    "version": 1
  },
  "userdoc": {
    "kind": "user",
    "methods": {},
    "version": 1
  }
}